:100000000C9462000C948A000C948A000C948A0070
:100010000C948A000C948A000C948A000C948A0038
:100020000C948A000C948A000C948A000C948A0028
:100030000C948A000C948A000C948A000C948A0018
:100040000C94B9030C948A000C948A000C948A00D6
:100050000C948A000C948A000C948A000C948A00F8
:100060000C948A000C948A000000000024002700F1
:100070002A0000000000250028002B0000000000DE
:1000800023002600290004040404040404040202DA
:100090000202020203030303030301020408102007
:1000A0004080010204081020010204081020000012
:1000B0000008000201000003040700000000000027
:1000C0000000D00511241FBECFEFD8E0DEBFCDBFAA
:1000D00011E0A0E0B1E0EAE3FCE002C005900D927F
:1000E000A039B107D9F721E0A0E9B1E001C01D9224
:1000F000A93BB207E1F710E0C2E6D0E004C02197C7
:10010000FE010E941006C136D107C9F70E94030400
:100110000C941B060C940000833081F028F481308D
:1001200099F08230A1F008958730A9F08830B9F0B5
:100130008430D1F4809180008F7D03C08091800055
:100140008F7780938000089584B58F7702C084B53F
:100150008F7D84BD08958091B0008F7703C080911A
:10016000B0008F7D8093B0000895CF93DF93282F48
:1001700030E0F901E255FF4F8491F901E656FF4F57
:10018000D491F901EA57FF4FC491CC2391F081112A
:100190000E948C00EC2FF0E0EE0FFF1FE458FF4FA1
:1001A000A591B491EC91ED2381E090E021F480E001
:1001B00002C080E090E0DF91CF9108951F93CF932C
:1001C000DF93282F30E0F901E255FF4F8491F901C8
:1001D000E656FF4FD491F901EA57FF4FC491CC2363
:1001E000C1F0162F81110E948C00EC2FF0E0EE0F71
:1001F000FF1FEE58FF4FA591B4919FB7F8941111CE
:1002000004C08C91D095D82302C0EC91DE2BDC93F6
:100210009FBFDF91CF911F910895CF93DF9390E01F
:10022000FC01E656FF4F2491FC01EA57FF4F8491F1
:10023000882361F190E0880F991FFC01E859FF4F76
:10024000C591D491FC01EE58FF4FA591B491611175
:1002500009C09FB7F8948881209582238883EC9108
:100260002E230BC0623061F49FB7F8948881322F3F
:10027000309583238883EC912E2B2C939FBF06C04F
:100280008FB7F894E8812E2B28838FBFDF91CF9111
:1002900008953FB7F89480919D0190919E01A0919F
:1002A0009F01B091A00126B5A89B05C02F3F19F072
:1002B0000196A11DB11D3FBFBA2FA92F982F8827E6
:1002C000820F911DA11DB11DBC01CD0142E0660F41
:1002D000771F881F991F4A95D1F708958F929F9293
:1002E000AF92BF92CF92DF92EF92FF926B017C01AF
:1002F0000E9449014B015C01C114D104E104F104E5
:10030000F1F00E944901DC01CB0188199909AA0981
:10031000BB09883E9340A105B10570F321E0C21AE4
:10032000D108E108F10888EE880E83E0981EA11C30
:10033000B11CC114D104E104F10419F7DDCFFF9021
:10034000EF90DF90CF90BF90AF909F908F900895E7
:10035000CF92DF92EF92FF920F931F93CF93DF9391
:100360006C017A018B01C0E0D0E0CE15DF0581F091
:10037000D8016D918D01D601ED91FC910190F08134
:10038000E02DC6010995892B11F02196EECF7E0153
:10039000C701DF91CF911F910F91FF90EF90DF90F8
:1003A000CF900895CF93DF93EC0160E08E810E949F
:1003B000DE0061E08E810E94DE0060E08E810E949E
:1003C000DE008BE891E00197F1F7DF91CF9108957E
:1003D000CF92DF92EF92FF920F931F93CF93DF9311
:1003E0006C017C0187E0E80EF11CC0E0D0E0062F34
:1003F00010E0B8010C2E02C0759567950A94E2F7DB
:100400006170F70181917F010E94DE002196C43066
:10041000D10579F7C601DF91CF911F910F91FF9020
:10042000EF90DF90CF900C94D201CF92DF92EF92B9
:10043000FF920F931F93CF93DF93EC01F62E642F5F
:100440008C810E94DE008D818F3F19F060E00E9458
:10045000DE008F850F2D10E084FF25C06E0187E040
:10046000C80ED11CE12CF12CB8010E2C02C07595E0
:1004700067950A94E2F76170F60181916F010E941D
:10048000DE00FFEFEF1AFF0A88E0E816F10461F7DB
:10049000CE01DF91CF911F910F91FF90EF90DF90F0
:1004A000CF900C94D201B80184E0759567958A9538
:1004B000E1F7CE010E94E8016F2DCE01DF91CF91CF
:1004C0001F910F91FF90EF90DF90CF900C94E80177
:1004D00040E0682F81EA91E00C94150281E00E94CF
:1004E00068028BE39FE10197F1F70895CF93DF93C3
:1004F000823028F09091B00198609093B001809381
:10050000B4011092B50180E48093B60180E180933C
:10051000B70180E58093B80161E08091A5010E9458
:100520000D018091A6018F3F19F061E00E940D013D
:1005300061E08091A7010E940D01C1EAD1E09E0116
:10054000215A31408091B00184FD03C084E090E0E5
:1005500002C088E090E02196281739072CF461E06A
:100560008E810E940D01EBCF8BE39DE00197F1F7A7
:1005700060E08091A5010E94DE0060E08091A7010B
:100580000E94DE008091A6018F3F19F060E00E947A
:10059000DE008091B00184FD20C063E081EA91E03B
:1005A0000E94E801CBE4D6E4CE010197F1F763E0C5
:1005B00081EA91E00E94E8012197F1F763E081EA86
:1005C00091E00E94E80183E592E00197F1F762E093
:1005D00081EA91E00E94E80115C080620E946802F1
:1005E0008BE496E40197F1F78091B00180620E945C
:1005F000680283E592E00197F1F78091B001806293
:100600000E9468028091B00180620E94680284E0CA
:100610008093B1018CE00E9468020E946E0282E029
:100620008093B20186E0DF91CF910C946802643030
:1006300008F063E09091B401691710F06FEF690F53
:10064000E62FF0E0EF55FE4F9489890F80680C94F7
:10065000680241E00E94150281E090E0089508954B
:1006600080E090E00895009769F0FC01019000207F
:10067000E9F73197AF01481B590BBC0181EA91E0C2
:100680000C94A80180E090E008950C9433038F92BD
:100690009F92AF92BF92CF92DF92EF92FF92CF9351
:1006A000DF93CDB7DEB7A1970FB6F894DEBF0FBECC
:1006B000CDBF6C01990FEE08FF08F7FE2AC041E09C
:1006C0006DE281EA91E00E94150222273327A901F9
:1006D0002C193D094E095F0919A2CE0181967C01B2
:1006E0009AE0892E912CA12CB12CCA01B901A50147
:1006F00094010E94EE05605DF70162937F01211570
:1007000031054105510589F7CF010E943303019658
:100710001DC0A701960119A2CE0181967C018AE035
:10072000882E912CA12CB12CCA01B901A5019401EC
:100730000E94EE05605DF70162937F01211531058E
:100740004105510589F7CF010E943303A1960FB6E9
:10075000F894DEBF0FBECDBFDF91CF91FF90EF9039
:10076000DF90CF90BF90AF909F908F9008950E94A0
:1007700016061F920F920FB60F9211242F933F93DC
:100780008F939F93AF93BF938091990190919A011A
:10079000A0919B01B0919C013091980123E0230F1F
:1007A0002D3720F40196A11DB11D05C026E8230FA9
:1007B0000296A11DB11D20939801809399019093F9
:1007C0009A01A0939B01B0939C0180919D0190910F
:1007D0009E01A0919F01B091A0010196A11DB11DA4
:1007E00080939D0190939E01A0939F01B093A001DF
:1007F000BF91AF919F918F913F912F910F900FBE1D
:100800000F901F901895789484B5826084BD84B54C
:10081000816084BD85B5826085BD85B5816085BDFB
:1008200080916E00816080936E00109281008091B3
:10083000810082608093810080918100816080933B
:100840008100809180008160809380008091B10060
:1008500084608093B1008091B00081608093B0008B
:1008600080917A00846080937A0080917A0082601F
:1008700080937A0080917A00816080937A008091E1
:100880007A00806880937A001092C10060E08FE067
:100890000E940D0160E080E10E940D0160E081E1B5
:1008A0000E940D0160E082E10E940D0160E083E1A1
:1008B0000E940D0182E00E9476028CE091E00E948D
:1008C000450361E080E00E9417038BE191E00E9404
:1008D000450368EB7BE080E090E00E946E0161E000
:1008E0008FE00E94DE0061E080E10E94DE0061E0B6
:1008F00081E10E94DE0061E082E10E94DE0061E0B1
:1009000083E10E94DE000E946E0260E080E00E94AF
:10091000170383E291E00E94450360E084E00E94B7
:10092000170387E291E00E94450360E088E00E949F
:1009300017038BE291E00E94450360E08CE00E9487
:10094000170380E391E00E944503C0E0D0E060E03F
:1009500080E00E94170383E291E00E94450361E07A
:1009600081E00E94170380919601909197010E9467
:10097000470360E084E00E94170387E291E00E9451
:10098000450361E085E00E941703809194019091F6
:1009900095010E94470360E088E00E9417038BE204
:1009A00091E00E94450361E089E00E941703809175
:1009B0009201909193010E94470360E08CE00E94B5
:1009C000170380E391E00E94450361E08DE00E94FF
:1009D000170380919001909191010E9447038FE04D
:1009E0000E94B500892B49F480919601909197015E
:1009F000019690939701809396018FE00E94B50035
:100A0000892BD9F380E10E94B500892B49F48091AC
:100A10009401909195010196909395018093940192
:100A200080E10E94B500892BD9F381E10E94B500D5
:100A3000892B49F4809192019091930101969093B2
:100A400093018093920181E10E94B500892BD9F333
:100A500082E10E94B500892B49F480919001909128
:100A600091010196909391018093900182E10E94FF
:100A7000B500892BD9F383E10E94B500892B09F0D9
:100A800089C06091960170919701409194015091B5
:100A90009501209192013091930180919001909164
:100AA0009101FB01E40FF51FE20FF31FE80FF91F9F
:100AB000EF2B09F44FC0461757075CF4261737078A
:100AC000B4F4861797079CF40E946E028DE391E0C0
:100AD0002DC0641775075CF42417350744F4841798
:100AE00095072CF40E946E0286E491E01FC0621705
:100AF00073075CF44217530744F4821793072CF4EE
:100B00000E946E028FE491E011C068177907ACF47F
:100B10004817590794F4281739077CF460E080E0FF
:100B20000E9417030E946E0288E591E00E9445032F
:100B300060ED77E080E090E017C00E946E0281E6F1
:100B400091E00E94450361E080E00E94170381E785
:100B500091E004C00E946E0281E891E00E9445038A
:100B600068EE73E080E090E00E946E010E946E02E9
:100B70001092970110929601109295011092940193
:100B80001092930110929201109291011092900193
:100B90000E946E02209709F4DACE0E940000D7CEA0
:100BA000E1EAF1E01382128284E091E09183808394
:100BB0008CE084838FEF85838BE0868385E0878359
:100BC00084E0808783E0818782E0828713861486B1
:100BD00015861686178681E00C947602A1E21A2EFD
:100BE000AA1BBB1BFD010DC0AA1FBB1FEE1FFF1FD1
:100BF000A217B307E407F50720F0A21BB30BE40B21
:100C0000F50B661F771F881F991F1A9469F7609567
:100C10007095809590959B01AC01BD01CF01089521
:100C2000EE0FFF1F0590F491E02D099481E090E014
:0A0C3000F8940C941B06F894FFCF13
:100C3A00000000002903A80130032F03566F7469CE
:100C4A006E67204D616368696E6500434F454E3398
:100C5A003130005044500041504300415047410058
:100C6A004C61626F757220706172747900424A50E9
:100C7A002057696E7300494E432057696E730041CD
:100C8A0041502057696E73004F54482057696E735C
:100C9A0000202020546965205570204F72202020A2
:100CAA00002020204E6F20526573756C742020201E
:100CBA00004E6F20566F74696E672E2E2E2E00001E
:00000001FF
